:060A0E00012201010E01AE
:040A96007F047E005B
:100A9A00D3EF9400EE94004007EF1F70F31E80F02E
:010AAA002229
:100AAB00D3EF9400EE9400400B7D13DDFEEF1F702F
:040ABB00EF1E80ECBE
:010ABF002214
:1009E800E4FDFCD3ED9FEE6480F8EC64809850152C
:1009F800E4FBFA0BBB00010AEB64794A70F50DBD04
:050A080000010C80DE7E
:010A0D0022C6
:10098100C2A4C2A2C2A1C2A3D2A0D2977F017E00FB
:100991001209E8C2A4D2A2D2A1D2A3C2A0C29712C4
:1009A10009E8D2A4C2A2C2A1D2A3D2A0D2971209AD
:1009B100E8D2A4D2A2D2A1C2A3C2A0C2970209E8DE
:1009C100E4FDD2967F08FE120A9AC2967F507E00FD
:1009D100120A9AD2967F087E00120A9AA296E433EE
:0609E100FD120A96AF05AD
:0109E70022ED
:100A7C00E4FC7D08C296ECC313FCD296309603437B
:090A8C000480120A96DDEDAF04AE
:010A9500223E
:070A59007FCC120A607F440C
:020A6000AD07E0
:100A62007B08C296ED139296120A96D296EDC313A4
:0A0A7200FDDBEF7F047E00020A9A0C
:1008F600E4F9FCFFFE1209C17E00EF6002803412AB
:100906000A591209C17E00EF600280277FCC120AC5
:10091600607FBE120A60120A7CA907120A7CEFFEEB
:10092600E9FFD39400EE94004009D3EF9400EE94CF
:08093600094005AE0AAF0B22D7
:01093E002296
:10088700AF90530707EF6407605AE5177042751773
:1008970001EF24FD602324FE6010147051E52670DB
:1008A7000475260122E4F5268041E5266040E5220D
:1008B7002514F514E43513800FE5266031C3E514DC
:1008C7009522F514E5139400F513AF14FE02078F74
:1008D700E526601A0517E517D39405401175221010
:0E08E700E4F51722E5176006E4F51775220107
:0108F50022E0
:0F056C001208F68E0A8F0BAD0BAC0AAF14AE134C
:10057B00C3EF9DF53BEE9CF53AFCAD3B12028A8F27
:10058B003F8E3E8D3D8C3CAB21AA20A91FA81EC0DF
:10059B0000C001C002C003AC3AAD3BEC12028AE4CE
:1005AB00FBFA7980783E120106D003D002D001D03D
:1005BB00001200158F218E208D1F8C1EAC0CAD0DE3
:1005CB00EC12028AAB21AA20A91FA81E12020C60F2
:1005DB00144012AC0CAD0DEC12028A8F218E208DC3
:1005EB001F8C1E801BE4FFFEFDFCAB21AA20A91F64
:1005FB00A81E12020C5009E4F521F520F51FF51E7B
:10060B00C3E53B9512FDE53A9511FC12028A8F4327
:10061B008E428D418C40853A11853B12AF21AE2025
:10062B00AD1FAC1EAB3FAA3EA93DA83C120015ABBB
:10063B0043AA42A941A8401200151202C3D3EF9559
:10064B000DE50C6480F8EE6480984006AE0CAF0D9F
:0D065B00800BC3EE648094805003E4FEFF2A
:01066800226F
:03000300020A34BA
:100A3400C0E0C0D075D000C007E50FFF8F8CE51073
:100A4400F58AC28DD2A90509E50970020508D00707
:050A5400D0D0D0E0321B
:03000B00020AC026
:100AC000758CFF758A8030A209C2A2758CDA758A8E
:050AD0000032D2A23249
:1003EF00120669D29575150075168085150C851640
:1003FF000DE4F508F509F518F519C2A2F521F52058
:10040F00F51FF51EF511F512F513751450E514C40B
:10041F00F8540FC868F514E513C454F048F513AF3A
:10042F0014FE12078F85130A85140B1209C1120AC5
:10043F00597F987E3A120AAB758901758CFDE4F5E8
:10044F008AD28CD2A9D288D2A8D2AFE50E6078C258
:10045F0095C3E5099405E50894004007051BE4F5ED
:10046F0008F509E51B6414703212056C8E188F198C
:10047F00AC0CAD0D7E257F1C120356C3E50D9519EF
:10048F00FDE50C9518FC120344EF24FAFFE43EFE41
:10049F00EFF4F510EEF4F50FE4F51B1208F68E0AE3
:1004AF008F0B12080B1205738E188F19120887C342
:1004BF00E50B940EE50A64809486408FE4F50ED226
:1004CF009512098102045AC3E5099405E5089400C1
:1004DF004008751B01E4F508F509E51B60321205AC
:1004EF006C8E188F19AC0CAD0D7E257F1C12035628
:1004FF00C3E50D9519FDE50C9518FC120344EF2487
:10050F00FAFFE43EFEEFF4F510EEF4F50FE4F51B01
:10051F001208F68E0A8F0B12080B1205738E188FA6
:10052F0019120887C3E50B9514E5136480F8E50AE3
:10053F006480985005C2950204D6D295E5142432F2
:10054F00FFE43513FED3E50B9FEE6480F8E50A64F4
:0D055F00809850030204D61209810204D6D0
:100A1400012DDF012E2E012F20043043202000065B
:0F0A2400345345543A200006274E4F573A2000CE
:10093F00C2A58B807F017E00120968D2A77F057E3A
:10094F0000120968C2A7EBC454F0F5807F017E0046
:09095F00120968D2A77F057E0091
:10096800D3EF9400EE9400400F7DC77C01DCFEDDE0
:08097800FAEF1F70EB1E80E88E
:010980002254
:0C0AE700AB07C2A7C2A612093FC2A7229B
:060AD50074302AF8E6FF70
:0C0ADB00AB07C2A7D2A612093FC2A72297
:100669007F32120AE77F28120AE77F0C120AE77F16
:1006790006120AE77F01120AE77F82120AE7E4F904
:10068900743429F8E6FF120ADB09B905F37F8A12E7
:100699000AE7AF2E120ADB7F8C120AE7AF2F120A84
:1006A900DB7F8D120AE7AF2D120ADB7F8E120AE774
:1006B900E4FA120AD50ABA03F97FC2120AE7E4F981
:1006C900742729F8E6FF120ADB09B905F37FCA1274
:1006D9000AE7AF2E120ADB7FCC120AE7AF2F120A04
:1006E900DB7FCD120AE7AF2D120ADB7FCE120AE7B4
:0906F900E4FA120AD50ABA03F969
:0107020022D4
:10078F00E4FBFAAD07AC06EC12028AE4FBFA79201F
:10079F00783F120106E4FBFAF9783F1200151202B6
:1007AF00C3AA06AB077C007D64120356EF2430F515
:1007BF00237C007D64AF03AE021203567E007F0AD6
:1007CF00CFCDCFCECCCE120356EF2430F524AE02D0
:1007DF00AF037C007D0A120356ED2430F5257F8888
:1007EF00120AE7AF23120ADB7F89120AE7AF24123E
:0C07FF000ADB7F8B120AE7AF25020ADB41
:10080B00E4FBFAAD07AC06EC12028AE4FBFA7920A2
:10081B00783F120106E4FBFAF9783F120015120239
:10082B00C3AA06AB077C007D64120356EF2430F598
:10083B001A7C007D64AF03AE021203567E007F0A62
:10084B00CFCDCFCECCCE120356EF2430F51CAE025B
:10085B00AF037C007D0A120356ED2430F51D7FC8D3
:10086B00120AE7AF1A120ADB7FC9120AE7AF1C1292
:0C087B000ADB7FCB120AE7AF1D020ADB8C
:10000E0002032FE86480F8E933E83360110460F0EE
:10001E00ED33EC337009E8FCE9FDEAFEEBFF220458
:10002E0060DED3EB9FEA9EE99DE8C2E78CF0C2F753
:10003E0095F0400CE8CCF8E9CDF9EACEFAEBCFFB1F
:10004E001202FA85D0F05804700320D5B3E804707C
:10005E00075002B2D502033992D5EC0460F7E4CC16
:10006E00C0E0C398F8603B94186008400DD0E0FBE8
:10007E00020311E4FBFAC9FC8028E830E406E4C967
:10008E00FBE4CAFCE830E305E4C9CACBFCE854073C
:10009E006010F8C3E913F9EA13FAEB13FBEC13FC47
:1000AE00D8F130F52FC3E49CFCEF9BFFEE9AFEEDEA
:1000BE0099FDD0E0FBEF4E4D4C701222DB03020394
:1000CE0036EC2CFCEF33FFEE33FEED33FDED30E777
:1000DE00EB020311EF2BFFEE3AFEED39FDD0E0FB04
:1000EE0050130BBB0003020339ED13FDEE13FEEFAD
:0800FE0013FFEC13FC020311D7
:10010600EC4D6011E8497017ED33EC3304600DE4F3
:10011600FCFFFEFD22E933E8330470F802032F12D8
:1001260002FA58046009E4CC2481500628500902DA
:100136000339284003020336C0E0EB4A7044B98015
:1001460006D0E0FB020325EF4E701CBD8008EBFFD6
:10015600EAFEE9FD80EBE98DF0A4FEE5F00201EF91
:10016600E9CDF9EAFEEBFFEF89F0A4FCE5F0CE89D4
:10017600F0A42EFFE435F0CD89F0A42DFEE435F091
:100186008067EF4E7005BD80D780C3EF8BF0A4ACBF
:10019600F0EE8BF0A42CFCE435F0F8EF8AF0A42CFA
:1001A600E5F038FCE433CB8DF0A42CFCE5F03BF80D
:1001B600EE8AF0A42CFCE5F038F8E433CF89F0A4FD
:1001C6002CFCE5F038CF3400CE89F0A42FFFE5F003
:1001D6003EFEE433C98DF0A42EFEE5F039CD8AF05B
:1001E600A42FFFE5F03EFEE43DFD33D0E0FB5007D3
:1001F6000BBB000F020339EC2CFCEF33FFEE33FE92
:06020600ED33FD020311BF
:10020C0074F8CC6480CCC86480C8F58204604FC399
:10021C00EB9FF5F0EA9E42F0E99D42F0E89C45F038
:10022C00603C501DE5825FFFE582D313CB5BCBF4C2
:10023C002B5582FB50280ABA002409B900200880EB
:10024C001DE5825BFBE582D313CF5FCFF4C3132F85
:10025C005582FF50090EBE00050DBD00010CC3EB0D
:10026C009FF5F0EA9E42F0E99D42F0E89C45F06073
:09027C0007CC4820E701B3EC2295
:1002850075F020800E75F010800575F0087D007EF4
:10029500007F003392D530D50312038CEC33401028
:1002A500EF33FFEE33FEED33FDEC33FCD5F0ED22FD
:0E02B500E5F0247EA2D513CC92E7CDCEFF2239
:1002C300EDD2E7CD33EC3392D524814006E4FFFE33
:1002D300FDFC22FCE4CFCECDCC24E0501174FF8092
:1002E300EDC3CC13CCCD13CDCE13CECF13CF04702F
:0702F300F030D5DE02038CA0
:1002FA00E9D2E7C933E833F892D5EDD2E7CD33EC4A
:07030A0033FC5002B2D522C2
:10031100EC30E7100FBF000C0EBE00080DBD00044D
:100321000BEB6014A2D5EB13FCED92E7FD2274FFF9
:10033100FCFDFEFF22E480F8A2D574FF13FC7D8052
:03034100E480EF66
:03000000020703F1
:0C070300787FE4F6D8FD75814302074AB8
:10034400EF8DF0A4A8F0CF8CF0A428CE8DF0A42ECD
:02035400FE2287
:10035600C2D5EC30E709B2D5E4C39DFDE49CFCEEC2
:1003660030E715B2D5E4C39FFFE49EFE12039AC39D
:10037600E49DFDE49CFC800312039A30D507C3E498
:060386009FFFE49EFE2231
:0E038C00C3E49FFFE49EFEE49DFDE49CFC2282
:10070F000203EFE493A3F8E493A34003F68001F20E
:10071F0008DFF48029E493A3F85407240CC8C333EB
:10072F00C4540F4420C8834004F456800146F6DFBA
:10073F00E4800B0102040810204080900A0EE47E32
:10074F00019360BCA3FF543F30E509541FFEE493AF
:10075F00A360010ECF54C025E060A840B8E493A376
:10076F00FAE493A3F8E493A3C8C582C8CAC583CAA1
:10077F00F0A3C8C582C8CAC583CADFE9DEE780BE59
:010A330000C2
:10039A00BC000BBE0029EF8DF084FFADF022E4CC47
:1003AA00F875F008EF2FFFEE33FEEC33FCEE9DEC10
:1003BA00984005FCEE9DFE0FD5F0E9E4CEFD22ED56
:1003CA00F8F5F0EE8420D21CFEADF075F008EF2FA0
:1003DA00FFED33FD4007985006D5F0F222C398FD91
:0503EA000FD5F0EA222E
:00000001FF
